:020000040800F2
:1000000090040020C9000008D90A0008290A000845
:1000100000000000000000000000000000000000E0
:10002000000000000000000000000000DD0A0008E1
:100030000000000000000000DB0A0008DF0A0008E2
:10004000DB00000800000000DB000008DB00000807
:10005000DB000008DB000008DB000008DB00000814
:1000600000000000DB000008DB000008DB000008E7
:10007000DB000008DB000008DB00000800000000D7
:10008000DB000008DB00000800000000DB000008C7
:10009000DB000008DB000008DB000008DB000008D4
:1000A000DB000008DB000008DB000008DB000008C4
:1000B000DB0000080348854600F08EF80048004742
:1000C000D30E0008900400200448804704480047ED
:1000D000FEE7FEE7FEE7FEE7FEE7FEE7310B00087E
:1000E000B500000830B50B4601460020202201244F
:1000F00009E00D46D5409D4205D31D469540491B5C
:100100002546954040191546521E002DF1DC30BDA4
:10011000F0B51FB40646002082B005464024019188
:1001200000901BE0019922460F46304600F020F86F
:10013000049A059B801A994110D31046194622460D
:1001400000F039F8361A8F4101972246012000212C
:10015000009F00F030F838184D4100902046641E92
:100160000028DFDC019B00982946324607B0F0BD2D
:1001700010B5202A04DB0846203AD040002110BDEB
:100180000B46D340D0402024A21A91400843194680
:1001900010BDD2B201E00270401C491EFBD2704774
:1001A0000022F6E710B513460A4604461946FFF743
:1001B000F0FF204610BD10B5202A04DB0146203A8E
:1001C0009140002010BD914020239C1A0346E3403B
:1001D0001943904010BD0000064C0125064E05E075
:1001E000E36807CC2B430C3C98471034B442F7D358
:1001F000FFF764FFFC0E00081C0F0008F8B5002391
:100200008DE001249C40A44622407DD04C68022C05
:1002100001D0122C0CD1DC08A40027183C6A5D0721
:10022000ED0E0F26AE40B4430E69AE4026433E624B
:1002300005685E000324B4400F79A543BF07BF0FD4
:10024000B7402F4307604D68012D05D0022D03D024
:10025000112D01D0122D0ED18568CF68A543B7406E
:100260002F43876047686546AF430D79ED06ED0F74
:100270009D403D434560C568A5438C68B4402C4310
:10028000C4604C68E40049D5284CA5690126354373
:10029000A561A4699D0834400094254CAD002F1938
:1002A000BC689D072E0F0F25B540AC430925ED0610
:1002B000A84201D100250FE01E4DA84201D1012521
:1002C0000AE01D4DA84201D1022505E01B4DA842C0
:1002D00001D1032500E00525B5402543BD60184C3C
:1002E00025684E689543F60300D51543256065687B
:1002F0004E689543B60300D515436560A5684E6802
:100300009543F60202D500E008E01543A560E568D4
:100310004E689543B60200D51543E5605B1C0A683C
:100320001446DC4000D06CE7F8BD0000001002402D
:10033000000001400004004800080048000C00488C
:1003400000040140002A01D081617047816270473A
:100350000148806870470000000000200248816862
:1003600002788918816070470000002010B50648A7
:100370000168102211430160002000F007F800F02E
:1003800027F8002010BD00000020024070B5044690
:100390000D4D7D202978C000FFF7A4FE01460B48D3
:1003A0000068FFF79FFE00F0C3FA002809D1042C73
:1003B00007D200222146401E00F01EF800206C608B
:1003C00070BD012070BD0000000000200C00002066
:1003D00008B5084881690122114381618169114092
:1003E0000091C26901040A43C261C06908400090DB
:1003F00008BD00000010024010B500F039FD10BD2E
:10040000F8B50F46060059D03A4D2868C007C00F0E
:10041000B84209D22868400840003843286028685C
:10042000C007C00FB84249D13068334C81070CD5A2
:10043000400704D5606807210902084360606068CE
:10044000F0218843B168084360603078C00726D047
:10045000706801280ED0216802280ED08907002973
:100460002CDA61688908890001436160FFF770FF39
:1004700000900DE021688903F1E78901EFE7FFF7BC
:1004800067FF0099411A1D48814201D90320F8BD38
:1004900060680C210840716889008842EFD12868A3
:1004A000C007C00FB8420BD9286840084000384345
:1004B00028602868C007C00FB84201D00120F8BDED
:1004C0003078400706D56068072109028843F16843
:1004D0000843606000F028F86168094A0906090FBE
:1004E000515CC840074908600020FFF74FFF00201B
:1004F000F8BD0000002002400010024088130000F8
:10050000E40E00080C000020044805490068496812
:10051000044A4905490F515CC84070470C0000204F
:1005200000100240F40E000810B514A30FCB88B0E1
:100530006C460FC415A30FCB0FC4184A51680C208A
:100540000B4603401648042B16D0082B14D18B02FF
:100550001B0F6C46E45CD26A04AB1207120F9A5C64
:10056000C90305D500231946FFF7D2FD214601E056
:1005700020460C4900F064FC08B010BD02030405DD
:10058000060708090A0B0C0D0E0F101001020304D8
:1005900005060708090A0B0C0D0E0F10001002408B
:1005A00000127A0000093D00FEB5040070D02078EA
:1005B000DC4DC0074AD068680007800F012807D0CB
:1005C00068680007800F022809D16868C00306D553
:1005D000286880033AD560680028E7D036E0616873
:1005E000012914D001208004002901D0052914D04C
:1005F0002A68012109048A432A6029688143296005
:100600006068002816D0FFF7A3FE06460EE02868B3
:100610000121090408432860F2E7296801432960A1
:10062000F5E7FFF795FE801B64286ED828688003E5
:10063000F7D50BE0FFF78CFE064604E0FFF788FED7
:10064000801B6428F1D828688003F7D4207801261D
:10065000800700283CDA68680007800F07D06868C8
:100660000007800F022809D16868C00306D42868F3
:10067000800716D5E06801280AD112E0E06800285A
:10068000286816D030432860FFF762FE074605E071
:1006900043E1FFF75DFEC01B0228C6D8286880072B
:1006A000F7D52868F82188432169C90008432860E4
:1006B0000EE0400840002860FFF74AFE074604E0CD
:1006C000FFF746FEC01B0228AFD828688007F7D482
:1006D0002078000722D5E0690028686A0ED03043F0
:1006E0006862FFF735FE074604E0FFF731FEC01BE6
:1006F00002289AD8686A8007F7D50FE040084000C2
:100700006862FFF725FE074605E09DE0FFF720FE43
:10071000C01B022889D8686A8007F7D4207804278C
:100720004007002860DA00200190E869C00008D482
:10073000E969B8060143E961E969014001200091D6
:10074000019079480168C90511D4016882151143E7
:100750000160FFF7FDFD009005E0FFF7F9FD00994E
:10076000401A642870D870480068C005F5D5A068A4
:1007700001280AD0002801D0052810D0286A400896
:1007800040002862286AB84301E0286A30432862A2
:10079000A068002812D0FFF7DBFD00900AE0286A6D
:1007A00038432862F1E7FFF7D3FD0099411A5F480B
:1007B000814249D8286A8007F5D50DE0FFF7C8FDCA
:1007C000009006E0FFF7C4FD0099411A57488142A6
:1007D0003AD8286A8007F5D40198002804D0E9693E
:1007E000012000078143E9612078C00635D56069A2
:1007F00001280CD0401D686B23D038436863686BB8
:10080000400840006863FFF7A3FD064622E0686BDE
:1008100038436863686B30436863FFF799FD0646A9
:1008200004E0FFF795FD801B02285BD8686B80070A
:10083000F7D5686BF8218843A169C900084368634C
:100840000BE0B8436863F4E74CE0FFF781FD801BE1
:10085000022847D8686B8007F7D4206A00285ED04A
:1008600069680907890F022942D001263606022845
:10087000286805D0B0432860FFF76AFD044633E0DE
:10088000B0432860FFF764FD074604E0FFF760FD12
:10089000C01B022826D828688001F7D4E86AE16ADC
:1008A000000900010843E862616AA06A08436968B8
:1008B0003D22120491430843686028683043286051
:1008C000FFF746FD044604E0FFF742FD001B022847
:1008D00008D828688001F7D521E0FFF739FD001B13
:1008E000022801D90320FEBD28688001F5D416E056
:1008F0000128F8D06868E96A01221204636A02409C
:100900009A420AD10907E26A090F914205D10F21E3
:1009100089040840A16A884201D00120FEBD002060
:10092000FEBD00000010024000700040881300006F
:10093000094910B5401E884201D9012010BD074C5D
:1009400060610321081F00F093FA0020A0610720D6
:100950002061002010BD0000FFFFFF0000E000E06C
:1009600010B5040003D0606F002802D007E001201A
:1009700010BD002170200155204600F027F82420EA
:10098000606720680168490849000160204600F05E
:1009900065F90128ECD0606A002802D0204600F0FA
:1009A000C8F8206841680122D20291434160206862
:1009B0008168082291438160206801680122114307
:1009C0000160204600F01AF910BD000010B586B095
:1009D000044614216846FFF7E3FB1149206888426A
:1009E0001CD11048C269012149040A43C261C2698D
:1009F0000A40059242690A434261406908400590F5
:100A00000C20009002200190002002900390012011
:100A1000049009206946C006FFF7F0FB06B010BD40
:100A20000044004000100240FEE7000030B587B0EF
:100A300014216846FFF7B4FB194842690121C90433
:100A40000A43426142690A4005924269C9000A4369
:100A5000426142690A400592426949110A43426172
:100A6000406909250840ED0605900022202128460E
:100A7000FFF768FC012040030024009001946946C0
:100A800002940848FFF7BAFB202000900120019053
:100A90000294694603942846FFF7B0FB07B030BDC7
:100AA000001002400008004810B50A4808490160DB
:100AB0004B214902416000218160C1600161816177
:100AC000C1610C22016242614162FFF749FF10BD22
:100AD000004400401000002070477047704710B578
:100AE000FFF73CFC10BD30B591B030216846FFF7F0
:100AF00057FB00240D94012003900E940225102032
:100B000009940490009505200F94C0040A900C9459
:100B100008950B946846FFF747FD07200C900E944C
:100B200001210D950F940CA8FFF76AFC11B030BDA0
:100B3000704710B5818CC90707D001684A68012346
:100B40005B049A43836A1A434A60818C890707D5FC
:100B500001684A6801231B049A43C36A1A434A6026
:100B6000818C490707D501684A6801239B049A4391
:100B7000036B1A434A60818C090707D501684A68EC
:100B80000123DB039A43436B1A434A60818CC906F5
:100B900007D50268916801231B039943836B1943AE
:100BA0009160818C890607D501688A6801235B03FF
:100BB0009A43C36B1A438A60818C490612D5036835
:100BC0005A6801210905046C8A4322435A60026C69
:100BD0008A4207D10268516803235B059943436C3D
:100BE00019435160818C090607D501684A680123C1
:100BF000DB04806C9A4302434A6010BDF8B50026BE
:100C00000446C667FFF7A4FB054620680068124F3C
:100C1000000709D501212B460022490520460097EF
:100C200000F0C0F800280DD12068006840070BD5FF
:100C300001212B46002289052046009700F0B2F8DA
:100C4000002801D00320F8BD20206067A067603431
:100C500026740020F8BD0000FFFFFF0170B50446B8
:100C600080682169E26908436169002511432268AF
:100C700008431168444B19400143116021684868DA
:100C8000032212039043E26810434860A169206A7E
:100C90002268084391680B231B029943014391602A
:100CA0003A492068884210D13948006B8007800F8C
:100CB00011D0012805D0022805D003280AD102202E
:100CC00009E0042007E0082005E03249884201D10C
:100CD000002000E010200122E169D2032E4E914253
:100CE00028D1002806D0022807D0042817D00828C9
:100CF00044D11AE0FFF708FC13E06168274A48086E
:100D00008018FFF7EFF980B201461039B14235D8AB
:100D10002149491C01400007400F084321E0FFF72B
:100D200003FC616840004A08EAE76168012248085C
:100D30001204E5E7002806D0022807D0042813D0C3
:100D400008281BD116E0FFF7DFFB0FE06168144AAB
:100D5000480811E0FFF7C6F980B201461039B142E8
:100D60000CD82168C8600AE0FFF7DEFB61684A081A
:100D70001018EFE7616848088018EBE701250020AC
:100D800020666066284670BDF369FFFF00380140A9
:100D90000010024000440040EFFF00000024F40077
:100DA00000127A00FFB581B005460F460446603553
:100DB0000A9E38E0701C36D0FFF7CAFA0499401A30
:100DC000B04221D8002E1FD02068016849072AD5DB
:100DD000C069C043000526D401202168C002086212
:100DE00020680168FF22A132914301602068816878
:100DF00049084900816020206067A067E067002003
:100E00002874032005B0F0BD20680168FF22A132DC
:100E10009143016020688168490849008160202071
:100E20006067A067EBE72068C1693846884305D052
:100E3000002103988142BDD00020E3E70121F8E7BB
:100E4000F8B5040C8BB2264682B25E430D0C1046F8
:100E5000370C5843360480190021794116466E43F9
:100E6000370C36048019794126466E438919F8BD3E
:100E70008307FF22DB0E9A408907090E994000285C
:100E800008DB830809489B001B1818689043084337
:100E9000186070470007000F0838830804489B005B
:100EA0001B18D86990430843D861704700E400E0FC
:100EB00000ED00E002E008C8121F08C1002AFAD1C4
:100EC00070477047002001E001C1121F002AFBD1CA
:100ED0007047FFF74BFAFFF706FEFFF7A7FDFFF796
:100EE000E3FDFEE700000000000000000102030433
:100EF0000607080900000000010203041C0F000897
:100F00000000002010000000B40E00082C0F0008A4
:100F10001000002080040000C40E00080100000042
:0C0F2000040000000000000000127A0035
:04000005080000B53A
:00000001FF
